derivation:m/44'/1'/0'
tx.outputs():_type2
应该与热钱包_type一致addr=0 script=2

tx.outputs():address01040390d003012844a9059cbb000000000000000000000000d7316ca8bbe89a6b0c1ea2422b1bc921c5f3ab0a0000000000000000000000000000000000000000000000000000000005f5e100144b522ef3f01fafb6bd7ba7a8414f1461158cc31ac2

输出了公钥的路径[m/44'/88'/0]

tx.outputs():amount0

info:None由address得到的info
############
我认为这里有问题:
txoutputtype.op_return_data = address[2:]040390d003012844a9059cbb000000000000000000000000d7316ca8bbe89a6b0c1ea2422b1bc921c5f3ab0a0000000000000000000000000000000000000000000000000000000005f5e100144b522ef3f01fafb6bd7ba7a8414f1461158cc31ac2
address:01040390d003012844a9059cbb000000000000000000000000d7316ca8bbe89a6b0c1ea2422b1bc921c5f3ab0a0000000000000000000000000000000000000000000000000000000005f5e100144b522ef3f01fafb6bd7ba7a8414f1461158cc31ac2
derivation:m/44'/1'/0'
tx.outputs():_type0
应该与热钱包_type一致addr=0 script=2

tx.outputs():addressqUY1CtQ7ckLBBBNCEEX1urJMnsNYJmFWmA

输出了公钥的路径[m/44'/88'/0]

tx.outputs():amount6258217400

info:((True, 0), ('tpubDCdf6NziND7YC2QaZhXpDghGr3w9L6VUr7XHa1rmGEaYEXXH9VSGz3RLij1LWQZFBQqXKdZa7C8eiMBfEJpDkkVB9SezeKBJVjszspMYjSY',), None)由address得到的info
prev_tx:{'ceba620680624fbc46072d53a67bafcdb921879eb311538b1f32f88408f28fee': <qtum_electrum.transaction.Transaction object at 0x7f37b8b2bf98>}

打印了前一个交易的信息

xpub_path:{'tpubDCdf6NziND7YC2QaZhXpDghGr3w9L6VUr7XHa1rmGEaYEXXH9VSGz3RLij1LWQZFBQqXKdZa7C8eiMBfEJpDkkVB9SezeKBJVjszspMYjSY': "m/44'/1'/0'"}

输出了公钥的路径[m/44'/88'/0]

inputs:[<TxInputType: {'prev_index': 1, 'sequence': 4294967294, 'script_type': 0, 'address_n': [2147483692, 2147483649, 2147483648, 1, 0], 'prev_hash': b'\xce\xbab\x06\x80bO\xbcF\x07-S\xa6{\xaf\xcd\xb9!\x87\x9e\xb3\x11S\x8b\x1f2\xf8\x84\x08\xf2\x8f\xee', 'amount': 6268592400}>]

outputs:[<TxOutputType: {'op_return_data': b'\x01\x04\x03\x90\xd0\x03\x01(D\xa9\x05\x9c\xbb\x00\x00\x00\x00\x00\x00\x00\x00\x00\x00\x00\x00\xd71l\xa8\xbb\xe8\x9ak\x0c\x1e\xa2B+\x1b\xc9!\xc5\xf3\xab\n\x00\x00\x00\x00\x00\x00\x00\x00\x00\x00\x00\x00\x00\x00\x00\x00\x00\x00\x00\x00\x00\x00\x00\x00\x00\x00\x00\x00\x05\xf5\xe1\x00\x14KR.\xf3\xf0\x1f\xaf\xb6\xbd{\xa7\xa8AO\x14a\x15\x8c\xc3\x1a\xc2', 'script_type': 3, 'amount': 0}>, <TxOutputType: {'script_type': 0, 'address_n': [2147483692, 2147483649, 2147483648, 1, 0], 'amount': 6258217400}>]

origin_signatures:[b'0E\x02!\x00\xaf\xd1\xcd\xa7m\xa9\xf3\x1c \x7f\xa57\xd1=\xce\x03\xe7\x1b\xec{v\xd1\xa6\x84\xfe\xcfU\xb0\x1a\xc6f`\x02 w\x9ff\xbb\xd4\xc3\x89B\xcd<\xf9\xf7\xea\xc7\xaa\x8dI\xf7\xc7Mb\n^\xc2\xaa\x950\x1c}DG>']
unupdated_sig_tx:45505446ff000100000001ee8ff20884f8321f8b5311b39e8721b9cdaf7ba6532d0746bc4f62800662bace010000005601ff53ff043587cf0352b519e080000000c5bd0ac7e3c47cad4258cf78a58d39bae3891f255bc5bcfabaf8715851e828d70234e38dd09205404508836e886f967d5d2847a848ff21d759ea433eae63a4670301000000feffffff0200000000000000006301040390d003012844a9059cbb000000000000000000000000d7316ca8bbe89a6b0c1ea2422b1bc921c5f3ab0a0000000000000000000000000000000000000000000000000000000005f5e100144b522ef3f01fafb6bd7ba7a8414f1461158cc31ac2b8d10475010000001976a9147866a4e2bd6cef5bc362962e836ec94bc2b549b388ac00000000
nonsig_txin:{'height': 187293, 'value': 6268592400, 'num_sig': 1, 'prevout_hash': 'ceba620680624fbc46072d53a67bafcdb921879eb311538b1f32f88408f28fee', 'pubkeys': ['0224e773f36e5c84b7b7996d904fea4e59187b982e7fd2724580bcabc483ad3c5c'], 'prevout_n': 1, 'coinbase': False, 'prev_tx': <qtum_electrum.transaction.Transaction object at 0x7f37b8b2bf98>, 'type': 'p2pkh', 'signatures': [None], 'address': 'qUY1CtQ7ckLBBBNCEEX1urJMnsNYJmFWmA', 'x_pubkeys': ['ff043587cf0352b519e080000000c5bd0ac7e3c47cad4258cf78a58d39bae3891f255bc5bcfabaf8715851e828d70234e38dd09205404508836e886f967d5d2847a848ff21d759ea433eae63a4670301000000']}
sig_txin:{'witness': None, 'height': 187293, 'value': 6268592400, 'num_sig': 1, 'prevout_hash': 'ceba620680624fbc46072d53a67bafcdb921879eb311538b1f32f88408f28fee', 'pubkeys': ['0224e773f36e5c84b7b7996d904fea4e59187b982e7fd2724580bcabc483ad3c5c'], 'prevout_n': 1, 'coinbase': False, 'prev_tx': <qtum_electrum.transaction.Transaction object at 0x7f37b8b2bf98>, 'type': 'p2pkh', 'scriptSig': None, 'signatures': ['3045022100afd1cda76da9f31c207fa537d13dce03e71bec7b76d1a684fecf55b01ac666600220779f66bbd4c38942cd3cf9f7eac7aa8d49f7c74d620a5ec2aa95301c7d44473e01'], 'address': 'qUY1CtQ7ckLBBBNCEEX1urJMnsNYJmFWmA', 'x_pubkeys': ['ff043587cf0352b519e080000000c5bd0ac7e3c47cad4258cf78a58d39bae3891f255bc5bcfabaf8715851e828d70234e38dd09205404508836e886f967d5d2847a848ff21d759ea433eae63a4670301000000']}
updated_sig_tx:0100000001ee8ff20884f8321f8b5311b39e8721b9cdaf7ba6532d0746bc4f62800662bace010000006b483045022100afd1cda76da9f31c207fa537d13dce03e71bec7b76d1a684fecf55b01ac666600220779f66bbd4c38942cd3cf9f7eac7aa8d49f7c74d620a5ec2aa95301c7d44473e01210224e773f36e5c84b7b7996d904fea4e59187b982e7fd2724580bcabc483ad3c5cfeffffff0200000000000000006301040390d003012844a9059cbb000000000000000000000000d7316ca8bbe89a6b0c1ea2422b1bc921c5f3ab0a0000000000000000000000000000000000000000000000000000000005f5e100144b522ef3f01fafb6bd7ba7a8414f1461158cc31ac2b8d10475010000001976a9147866a4e2bd6cef5bc362962e836ec94bc2b549b388ac00000000
derivation:m/44'/1'/0'
tx.outputs():_type0
应该与热钱包_type一致addr=0 script=2

tx.outputs():addressqdBDeM1aJgbTvLsgZbu6cnk5WCKqhTX8zy

输出了公钥的路径[m/44'/88'/0]

tx.outputs():amount10000000

info:None由address得到的info
derivation:m/44'/1'/0'
tx.outputs():_type0
应该与热钱包_type一致addr=0 script=2

tx.outputs():addressqUY1CtQ7ckLBBBNCEEX1urJMnsNYJmFWmA

输出了公钥的路径[m/44'/88'/0]

tx.outputs():amount279435000

info:((True, 0), ('tpubDCdf6NziND7YC2QaZhXpDghGr3w9L6VUr7XHa1rmGEaYEXXH9VSGz3RLij1LWQZFBQqXKdZa7C8eiMBfEJpDkkVB9SezeKBJVjszspMYjSY',), None)由address得到的info
prev_tx:{'eb154436456b381049ffe96a9a3730b1f2ddcc38ea3d6b73c0da53d16aba0839': <qtum_electrum.transaction.Transaction object at 0x7f37b8b3eeb8>}

打印了前一个交易的信息

xpub_path:{'tpubDCdf6NziND7YC2QaZhXpDghGr3w9L6VUr7XHa1rmGEaYEXXH9VSGz3RLij1LWQZFBQqXKdZa7C8eiMBfEJpDkkVB9SezeKBJVjszspMYjSY': "m/44'/1'/0'"}

输出了公钥的路径[m/44'/88'/0]

inputs:[<TxInputType: {'prev_index': 1, 'sequence': 4294967293, 'script_type': 0, 'address_n': [2147483692, 2147483649, 2147483648, 1, 3], 'prev_hash': b'\xeb\x15D6Ek8\x10I\xff\xe9j\x9a70\xb1\xf2\xdd\xcc8\xea=ks\xc0\xdaS\xd1j\xba\x089', 'amount': 289717500}>]

outputs:[<TxOutputType: {'script_type': 0, 'address': 'qdBDeM1aJgbTvLsgZbu6cnk5WCKqhTX8zy', 'amount': 10000000}>, <TxOutputType: {'script_type': 0, 'address_n': [2147483692, 2147483649, 2147483648, 1, 0], 'amount': 279435000}>]

origin_signatures:[b'0E\x02!\x00\xf5\xad\xacv\x9f*,\x11e\x8c\xe6"\xcfe\x8e8\x00\xa1\xf4\xe8\xae\x9fq\xb4\x15r\x8e+\xed\x00\xa8\x1d\x02 !\xb0\xc4\xa8\x8dy\xe0@\xdc\xc8rj\xacU\xcd\xa5\xb9]V\xc0\xaa\xbe\xb8HZv\xc7\xf3:W\xbd4']
unupdated_sig_tx:45505446ff0001000000013908ba6ad153dac0736b3dea38ccddf2b130379a6ae9ff4910386b45364415eb010000005601ff53ff043587cf0352b519e080000000c5bd0ac7e3c47cad4258cf78a58d39bae3891f255bc5bcfabaf8715851e828d70234e38dd09205404508836e886f967d5d2847a848ff21d759ea433eae63a4670301000300feffffff0280969800000000001976a914d7316ca8bbe89a6b0c1ea2422b1bc921c5f3ab0a88acf8d6a710000000001976a9147866a4e2bd6cef5bc362962e836ec94bc2b549b388ac00000000
nonsig_txin:{'height': 186937, 'value': 289717500, 'num_sig': 1, 'prevout_hash': 'eb154436456b381049ffe96a9a3730b1f2ddcc38ea3d6b73c0da53d16aba0839', 'pubkeys': ['02dec8fda08f2fc488702cdbbe8be61ffdbb95697158a9958bd11147210b6f51d4'], 'prevout_n': 1, 'coinbase': False, 'prev_tx': <qtum_electrum.transaction.Transaction object at 0x7f37b8b3eeb8>, 'type': 'p2pkh', 'sequence': 4294967293, 'signatures': [None], 'address': 'qR9oWD6KRkH7QbBxSxDSMkqTTD2mqgbHD6', 'x_pubkeys': ['ff043587cf0352b519e080000000c5bd0ac7e3c47cad4258cf78a58d39bae3891f255bc5bcfabaf8715851e828d70234e38dd09205404508836e886f967d5d2847a848ff21d759ea433eae63a4670301000300']}
sig_txin:{'witness': None, 'height': 186937, 'value': 289717500, 'num_sig': 1, 'prevout_hash': 'eb154436456b381049ffe96a9a3730b1f2ddcc38ea3d6b73c0da53d16aba0839', 'pubkeys': ['02dec8fda08f2fc488702cdbbe8be61ffdbb95697158a9958bd11147210b6f51d4'], 'prevout_n': 1, 'coinbase': False, 'prev_tx': <qtum_electrum.transaction.Transaction object at 0x7f37b8b3eeb8>, 'type': 'p2pkh', 'scriptSig': None, 'sequence': 4294967293, 'signatures': ['3045022100f5adac769f2a2c11658ce622cf658e3800a1f4e8ae9f71b415728e2bed00a81d022021b0c4a88d79e040dcc8726aac55cda5b95d56c0aabeb8485a76c7f33a57bd3401'], 'address': 'qR9oWD6KRkH7QbBxSxDSMkqTTD2mqgbHD6', 'x_pubkeys': ['ff043587cf0352b519e080000000c5bd0ac7e3c47cad4258cf78a58d39bae3891f255bc5bcfabaf8715851e828d70234e38dd09205404508836e886f967d5d2847a848ff21d759ea433eae63a4670301000300']}
updated_sig_tx:01000000013908ba6ad153dac0736b3dea38ccddf2b130379a6ae9ff4910386b45364415eb010000006b483045022100f5adac769f2a2c11658ce622cf658e3800a1f4e8ae9f71b415728e2bed00a81d022021b0c4a88d79e040dcc8726aac55cda5b95d56c0aabeb8485a76c7f33a57bd34012102dec8fda08f2fc488702cdbbe8be61ffdbb95697158a9958bd11147210b6f51d4fdffffff0280969800000000001976a914d7316ca8bbe89a6b0c1ea2422b1bc921c5f3ab0a88acf8d6a710000000001976a9147866a4e2bd6cef5bc362962e836ec94bc2b549b388ac00000000
derivation:m/44'/1'/0'
tx.outputs():_type0
应该与热钱包_type一致addr=0 script=2

tx.outputs():addressqdBDeM1aJgbTvLsgZbu6cnk5WCKqhTX8zy

输出了公钥的路径[m/44'/88'/0]

tx.outputs():amount10000000

info:None由address得到的info
derivation:m/44'/1'/0'
tx.outputs():_type0
应该与热钱包_type一致addr=0 script=2

tx.outputs():addressqUY1CtQ7ckLBBBNCEEX1urJMnsNYJmFWmA

输出了公钥的路径[m/44'/88'/0]

tx.outputs():amount6628900

info:((True, 0), ('tpubDCdf6NziND7YC2QaZhXpDghGr3w9L6VUr7XHa1rmGEaYEXXH9VSGz3RLij1LWQZFBQqXKdZa7C8eiMBfEJpDkkVB9SezeKBJVjszspMYjSY',), None)由address得到的info
prev_tx:{'e476872a70682dec222f6f1ed1fad66cad3e9f16713b1480390f3f5ac4493c8a': <qtum_electrum.transaction.Transaction object at 0x7f37b8b3ee10>, '860f820fa4610afc63d35d6c9bc3bb362adcf4dd956c5c904d6c2002942a69ea': <qtum_electrum.transaction.Transaction object at 0x7f37b8b3ee80>}

打印了前一个交易的信息

xpub_path:{'tpubDCdf6NziND7YC2QaZhXpDghGr3w9L6VUr7XHa1rmGEaYEXXH9VSGz3RLij1LWQZFBQqXKdZa7C8eiMBfEJpDkkVB9SezeKBJVjszspMYjSY': "m/44'/1'/0'"}

输出了公钥的路径[m/44'/88'/0]

inputs:[<TxInputType: {'prev_index': 11, 'sequence': 4294967293, 'script_type': 0, 'address_n': [2147483692, 2147483649, 2147483648, 1, 0], 'prev_hash': b'\xe4v\x87*ph-\xec"/o\x1e\xd1\xfa\xd6l\xad>\x9f\x16q;\x14\x809\x0f?Z\xc4I<\x8a', 'amount': 8548200}>, <TxInputType: {'prev_index': 11, 'sequence': 4294967293, 'script_type': 0, 'address_n': [2147483692, 2147483649, 2147483648, 1, 0], 'prev_hash': b'\x86\x0f\x82\x0f\xa4a\n\xfcc\xd3]l\x9b\xc3\xbb6*\xdc\xf4\xdd\x95l\\\x90Ml \x02\x94*i\xea', 'amount': 8548200}>]

outputs:[<TxOutputType: {'script_type': 0, 'address': 'qdBDeM1aJgbTvLsgZbu6cnk5WCKqhTX8zy', 'amount': 10000000}>, <TxOutputType: {'script_type': 0, 'address_n': [2147483692, 2147483649, 2147483648, 1, 0], 'amount': 6628900}>]

origin_signatures:[b'0D\x02 ~\xbd~\xa2_\x02\xfe\x05IoG\xfe\xcb\xaf\x0eQ>R\x05\xf3&a>@\x10\x94cQ\xf5\xc3\x8fh\x02 *\x85\x9c\xa2\xd1\xea\xea_\xbd\xc9E\x00\xe0\xde\xc7\xa2\x15\xd4/\x90Q\n\x90\xd0"*\xa9g\xbb\x89\xb3\t', b'0E\x02!\x00\x972\\P\xc6U\xa9\x8b\xfa\x95\x82\xc6\x90{PS\xab\xd0\xd02\x0e\xd2^1 +\xcd\xa2EtX\xa6\x02 \\I\xe5\xc9\xf4\x0b\xc0g\xc8\x05W\xcap\xdb\x13\x8a\x8c\x06i,\xe5\x80-c \x16\xc0\r\xf95wg']
unupdated_sig_tx:45505446ff0001000000028a3c49c45a3f0f3980143b71169f3ead6cd6fad11e6f2f22ec2d68702a8776e40b0000005601ff53ff043587cf0352b519e080000000c5bd0ac7e3c47cad4258cf78a58d39bae3891f255bc5bcfabaf8715851e828d70234e38dd09205404508836e886f967d5d2847a848ff21d759ea433eae63a4670301000000feffffffea692a9402206c4d905c6c95ddf4dc2a36bbc39b6c5dd363fc0a61a40f820f860b0000005601ff53ff043587cf0352b519e080000000c5bd0ac7e3c47cad4258cf78a58d39bae3891f255bc5bcfabaf8715851e828d70234e38dd09205404508836e886f967d5d2847a848ff21d759ea433eae63a4670301000000feffffff0280969800000000001976a914d7316ca8bbe89a6b0c1ea2422b1bc921c5f3ab0a88ac24266500000000001976a9147866a4e2bd6cef5bc362962e836ec94bc2b549b388ac00000000
nonsig_txin:{'height': 186907, 'value': 8548200, 'num_sig': 1, 'prevout_hash': 'e476872a70682dec222f6f1ed1fad66cad3e9f16713b1480390f3f5ac4493c8a', 'pubkeys': ['0224e773f36e5c84b7b7996d904fea4e59187b982e7fd2724580bcabc483ad3c5c'], 'prevout_n': 11, 'coinbase': True, 'prev_tx': <qtum_electrum.transaction.Transaction object at 0x7f37b8b3ee10>, 'type': 'p2pkh', 'sequence': 4294967293, 'signatures': [None], 'address': 'qUY1CtQ7ckLBBBNCEEX1urJMnsNYJmFWmA', 'x_pubkeys': ['ff043587cf0352b519e080000000c5bd0ac7e3c47cad4258cf78a58d39bae3891f255bc5bcfabaf8715851e828d70234e38dd09205404508836e886f967d5d2847a848ff21d759ea433eae63a4670301000000']}
nonsig_txin:{'height': 186914, 'value': 8548200, 'num_sig': 1, 'prevout_hash': '860f820fa4610afc63d35d6c9bc3bb362adcf4dd956c5c904d6c2002942a69ea', 'pubkeys': ['0224e773f36e5c84b7b7996d904fea4e59187b982e7fd2724580bcabc483ad3c5c'], 'prevout_n': 11, 'coinbase': True, 'prev_tx': <qtum_electrum.transaction.Transaction object at 0x7f37b8b3ee80>, 'type': 'p2pkh', 'sequence': 4294967293, 'signatures': [None], 'address': 'qUY1CtQ7ckLBBBNCEEX1urJMnsNYJmFWmA', 'x_pubkeys': ['ff043587cf0352b519e080000000c5bd0ac7e3c47cad4258cf78a58d39bae3891f255bc5bcfabaf8715851e828d70234e38dd09205404508836e886f967d5d2847a848ff21d759ea433eae63a4670301000000']}
sig_txin:{'witness': None, 'height': 186914, 'value': 8548200, 'num_sig': 1, 'prevout_hash': '860f820fa4610afc63d35d6c9bc3bb362adcf4dd956c5c904d6c2002942a69ea', 'pubkeys': ['0224e773f36e5c84b7b7996d904fea4e59187b982e7fd2724580bcabc483ad3c5c'], 'prevout_n': 11, 'coinbase': True, 'prev_tx': <qtum_electrum.transaction.Transaction object at 0x7f37b8b3ee80>, 'type': 'p2pkh', 'scriptSig': None, 'sequence': 4294967293, 'signatures': ['304502210097325c50c655a98bfa9582c6907b5053abd0d0320ed25e31202bcda2457458a602205c49e5c9f40bc067c80557ca70db138a8c06692ce5802d632016c00df935776701'], 'address': 'qUY1CtQ7ckLBBBNCEEX1urJMnsNYJmFWmA', 'x_pubkeys': ['ff043587cf0352b519e080000000c5bd0ac7e3c47cad4258cf78a58d39bae3891f255bc5bcfabaf8715851e828d70234e38dd09205404508836e886f967d5d2847a848ff21d759ea433eae63a4670301000000']}
updated_sig_tx:01000000028a3c49c45a3f0f3980143b71169f3ead6cd6fad11e6f2f22ec2d68702a8776e40b0000006a47304402207ebd7ea25f02fe05496f47fecbaf0e513e5205f326613e4010946351f5c38f6802202a859ca2d1eaea5fbdc94500e0dec7a215d42f90510a90d0222aa967bb89b30901210224e773f36e5c84b7b7996d904fea4e59187b982e7fd2724580bcabc483ad3c5cfdffffffea692a9402206c4d905c6c95ddf4dc2a36bbc39b6c5dd363fc0a61a40f820f860b0000006b48304502210097325c50c655a98bfa9582c6907b5053abd0d0320ed25e31202bcda2457458a602205c49e5c9f40bc067c80557ca70db138a8c06692ce5802d632016c00df935776701210224e773f36e5c84b7b7996d904fea4e59187b982e7fd2724580bcabc483ad3c5cfdffffff0280969800000000001976a914d7316ca8bbe89a6b0c1ea2422b1bc921c5f3ab0a88ac24266500000000001976a9147866a4e2bd6cef5bc362962e836ec94bc2b549b388ac00000000
derivation:m/44'/1'/0'
tx.outputs():_type0
应该与热钱包_type一致addr=0 script=2

tx.outputs():addressqdBDeM1aJgbTvLsgZbu6cnk5WCKqhTX8zy

输出了公钥的路径[m/44'/88'/0]

tx.outputs():amount10000000

info:None由address得到的info
derivation:m/44'/1'/0'
tx.outputs():_type0
应该与热钱包_type一致addr=0 script=2

tx.outputs():addressqUY1CtQ7ckLBBBNCEEX1urJMnsNYJmFWmA

输出了公钥的路径[m/44'/88'/0]

tx.outputs():amount6628900

info:((True, 0), ('tpubDCdf6NziND7YC2QaZhXpDghGr3w9L6VUr7XHa1rmGEaYEXXH9VSGz3RLij1LWQZFBQqXKdZa7C8eiMBfEJpDkkVB9SezeKBJVjszspMYjSY',), None)由address得到的info
prev_tx:{'e476872a70682dec222f6f1ed1fad66cad3e9f16713b1480390f3f5ac4493c8a': <qtum_electrum.transaction.Transaction object at 0x7f37b8b3ee10>, '860f820fa4610afc63d35d6c9bc3bb362adcf4dd956c5c904d6c2002942a69ea': <qtum_electrum.transaction.Transaction object at 0x7f37b8b3ee80>}

打印了前一个交易的信息

xpub_path:{'tpubDCdf6NziND7YC2QaZhXpDghGr3w9L6VUr7XHa1rmGEaYEXXH9VSGz3RLij1LWQZFBQqXKdZa7C8eiMBfEJpDkkVB9SezeKBJVjszspMYjSY': "m/44'/1'/0'"}

输出了公钥的路径[m/44'/88'/0]

inputs:[<TxInputType: {'prev_index': 11, 'sequence': 4294967293, 'script_type': 0, 'address_n': [2147483692, 2147483649, 2147483648, 1, 0], 'prev_hash': b'\xe4v\x87*ph-\xec"/o\x1e\xd1\xfa\xd6l\xad>\x9f\x16q;\x14\x809\x0f?Z\xc4I<\x8a', 'amount': 8548200}>, <TxInputType: {'prev_index': 11, 'sequence': 4294967293, 'script_type': 0, 'address_n': [2147483692, 2147483649, 2147483648, 1, 0], 'prev_hash': b'\x86\x0f\x82\x0f\xa4a\n\xfcc\xd3]l\x9b\xc3\xbb6*\xdc\xf4\xdd\x95l\\\x90Ml \x02\x94*i\xea', 'amount': 8548200}>]

outputs:[<TxOutputType: {'script_type': 0, 'address': 'qdBDeM1aJgbTvLsgZbu6cnk5WCKqhTX8zy', 'amount': 10000000}>, <TxOutputType: {'script_type': 0, 'address_n': [2147483692, 2147483649, 2147483648, 1, 0], 'amount': 6628900}>]

origin_signatures:[b'0D\x02 ~\xbd~\xa2_\x02\xfe\x05IoG\xfe\xcb\xaf\x0eQ>R\x05\xf3&a>@\x10\x94cQ\xf5\xc3\x8fh\x02 *\x85\x9c\xa2\xd1\xea\xea_\xbd\xc9E\x00\xe0\xde\xc7\xa2\x15\xd4/\x90Q\n\x90\xd0"*\xa9g\xbb\x89\xb3\t', b'0E\x02!\x00\x972\\P\xc6U\xa9\x8b\xfa\x95\x82\xc6\x90{PS\xab\xd0\xd02\x0e\xd2^1 +\xcd\xa2EtX\xa6\x02 \\I\xe5\xc9\xf4\x0b\xc0g\xc8\x05W\xcap\xdb\x13\x8a\x8c\x06i,\xe5\x80-c \x16\xc0\r\xf95wg']
unupdated_sig_tx:45505446ff0001000000028a3c49c45a3f0f3980143b71169f3ead6cd6fad11e6f2f22ec2d68702a8776e40b0000005601ff53ff043587cf0352b519e080000000c5bd0ac7e3c47cad4258cf78a58d39bae3891f255bc5bcfabaf8715851e828d70234e38dd09205404508836e886f967d5d2847a848ff21d759ea433eae63a4670301000000fdffffffea692a9402206c4d905c6c95ddf4dc2a36bbc39b6c5dd363fc0a61a40f820f860b0000005601ff53ff043587cf0352b519e080000000c5bd0ac7e3c47cad4258cf78a58d39bae3891f255bc5bcfabaf8715851e828d70234e38dd09205404508836e886f967d5d2847a848ff21d759ea433eae63a4670301000000fdffffff0280969800000000001976a914d7316ca8bbe89a6b0c1ea2422b1bc921c5f3ab0a88ac24266500000000001976a9147866a4e2bd6cef5bc362962e836ec94bc2b549b388ac00000000
nonsig_txin:{'height': 186907, 'value': 8548200, 'num_sig': 1, 'prevout_hash': 'e476872a70682dec222f6f1ed1fad66cad3e9f16713b1480390f3f5ac4493c8a', 'pubkeys': ['0224e773f36e5c84b7b7996d904fea4e59187b982e7fd2724580bcabc483ad3c5c'], 'prevout_n': 11, 'coinbase': True, 'prev_tx': <qtum_electrum.transaction.Transaction object at 0x7f37b8b3ee10>, 'type': 'p2pkh', 'sequence': 4294967293, 'signatures': [None], 'address': 'qUY1CtQ7ckLBBBNCEEX1urJMnsNYJmFWmA', 'x_pubkeys': ['ff043587cf0352b519e080000000c5bd0ac7e3c47cad4258cf78a58d39bae3891f255bc5bcfabaf8715851e828d70234e38dd09205404508836e886f967d5d2847a848ff21d759ea433eae63a4670301000000']}
nonsig_txin:{'height': 186914, 'value': 8548200, 'num_sig': 1, 'prevout_hash': '860f820fa4610afc63d35d6c9bc3bb362adcf4dd956c5c904d6c2002942a69ea', 'pubkeys': ['0224e773f36e5c84b7b7996d904fea4e59187b982e7fd2724580bcabc483ad3c5c'], 'prevout_n': 11, 'coinbase': True, 'prev_tx': <qtum_electrum.transaction.Transaction object at 0x7f37b8b3ee80>, 'type': 'p2pkh', 'sequence': 4294967293, 'signatures': [None], 'address': 'qUY1CtQ7ckLBBBNCEEX1urJMnsNYJmFWmA', 'x_pubkeys': ['ff043587cf0352b519e080000000c5bd0ac7e3c47cad4258cf78a58d39bae3891f255bc5bcfabaf8715851e828d70234e38dd09205404508836e886f967d5d2847a848ff21d759ea433eae63a4670301000000']}
sig_txin:{'witness': None, 'height': 186914, 'value': 8548200, 'num_sig': 1, 'prevout_hash': '860f820fa4610afc63d35d6c9bc3bb362adcf4dd956c5c904d6c2002942a69ea', 'pubkeys': ['0224e773f36e5c84b7b7996d904fea4e59187b982e7fd2724580bcabc483ad3c5c'], 'prevout_n': 11, 'coinbase': True, 'prev_tx': <qtum_electrum.transaction.Transaction object at 0x7f37b8b3ee80>, 'type': 'p2pkh', 'scriptSig': None, 'sequence': 4294967293, 'signatures': ['304502210097325c50c655a98bfa9582c6907b5053abd0d0320ed25e31202bcda2457458a602205c49e5c9f40bc067c80557ca70db138a8c06692ce5802d632016c00df935776701'], 'address': 'qUY1CtQ7ckLBBBNCEEX1urJMnsNYJmFWmA', 'x_pubkeys': ['ff043587cf0352b519e080000000c5bd0ac7e3c47cad4258cf78a58d39bae3891f255bc5bcfabaf8715851e828d70234e38dd09205404508836e886f967d5d2847a848ff21d759ea433eae63a4670301000000']}
updated_sig_tx:01000000028a3c49c45a3f0f3980143b71169f3ead6cd6fad11e6f2f22ec2d68702a8776e40b0000006a47304402207ebd7ea25f02fe05496f47fecbaf0e513e5205f326613e4010946351f5c38f6802202a859ca2d1eaea5fbdc94500e0dec7a215d42f90510a90d0222aa967bb89b30901210224e773f36e5c84b7b7996d904fea4e59187b982e7fd2724580bcabc483ad3c5cfdffffffea692a9402206c4d905c6c95ddf4dc2a36bbc39b6c5dd363fc0a61a40f820f860b0000006b48304502210097325c50c655a98bfa9582c6907b5053abd0d0320ed25e31202bcda2457458a602205c49e5c9f40bc067c80557ca70db138a8c06692ce5802d632016c00df935776701210224e773f36e5c84b7b7996d904fea4e59187b982e7fd2724580bcabc483ad3c5cfdffffff0280969800000000001976a914d7316ca8bbe89a6b0c1ea2422b1bc921c5f3ab0a88ac24266500000000001976a9147866a4e2bd6cef5bc362962e836ec94bc2b549b388ac00000000
derivation:m/44'/1'/0'
tx.outputs():_type0
应该与热钱包_type一致addr=0 script=2

tx.outputs():addressqdBDeM1aJgbTvLsgZbu6cnk5WCKqhTX8zy

输出了公钥的路径[m/44'/88'/0]

tx.outputs():amount100000000

info:None由address得到的info
derivation:m/44'/1'/0'
tx.outputs():_type0
应该与热钱包_type一致addr=0 script=2

tx.outputs():addressqUY1CtQ7ckLBBBNCEEX1urJMnsNYJmFWmA

输出了公钥的路径[m/44'/88'/0]

tx.outputs():amount6157934900

info:((True, 0), ('tpubDCdf6NziND7YC2QaZhXpDghGr3w9L6VUr7XHa1rmGEaYEXXH9VSGz3RLij1LWQZFBQqXKdZa7C8eiMBfEJpDkkVB9SezeKBJVjszspMYjSY',), None)由address得到的info
prev_tx:{'fd9e03ef8f7ae88d7c9a64bafa169618a22456d5370ab5129d037844b08bc86d': <qtum_electrum.transaction.Transaction object at 0x7f37b8037d30>}

打印了前一个交易的信息

xpub_path:{'tpubDCdf6NziND7YC2QaZhXpDghGr3w9L6VUr7XHa1rmGEaYEXXH9VSGz3RLij1LWQZFBQqXKdZa7C8eiMBfEJpDkkVB9SezeKBJVjszspMYjSY': "m/44'/1'/0'"}

输出了公钥的路径[m/44'/88'/0]

inputs:[<TxInputType: {'prev_index': 1, 'sequence': 4294967293, 'script_type': 0, 'address_n': [2147483692, 2147483649, 2147483648, 1, 0], 'prev_hash': b'\xfd\x9e\x03\xef\x8fz\xe8\x8d|\x9ad\xba\xfa\x16\x96\x18\xa2$V\xd57\n\xb5\x12\x9d\x03xD\xb0\x8b\xc8m', 'amount': 6258217400}>]

outputs:[<TxOutputType: {'script_type': 0, 'address': 'qdBDeM1aJgbTvLsgZbu6cnk5WCKqhTX8zy', 'amount': 100000000}>, <TxOutputType: {'script_type': 0, 'address_n': [2147483692, 2147483649, 2147483648, 1, 0], 'amount': 6157934900}>]

origin_signatures:[b"0D\x02 i\xc0\x16\xc7\xfe\x1c33\xdb\x88\xc9\x0e\x81\x1ah\xc6\xf1\x17\xb6D\xcbTO\xa1@l\xe5[\xba\xe7\xb0\x1a\x02 \x124\xca\xd2\xe3\x8e7D_\\e\xb5!\xeaq\xff\x8a\xdf\xa1\x98D^\x19'\xa1w$\xd8\xd0M\xff\xbc"]
unupdated_sig_tx:45505446ff0001000000016dc88bb04478039d12b50a37d55624a2189616faba649a7c8de87a8fef039efd010000005601ff53ff043587cf0352b519e080000000c5bd0ac7e3c47cad4258cf78a58d39bae3891f255bc5bcfabaf8715851e828d70234e38dd09205404508836e886f967d5d2847a848ff21d759ea433eae63a4670301000000feffffff0200e1f505000000001976a914d7316ca8bbe89a6b0c1ea2422b1bc921c5f3ab0a88ac34a10a6f010000001976a9147866a4e2bd6cef5bc362962e836ec94bc2b549b388ac00000000
nonsig_txin:{'height': 187341, 'value': 6258217400, 'num_sig': 1, 'prevout_hash': 'fd9e03ef8f7ae88d7c9a64bafa169618a22456d5370ab5129d037844b08bc86d', 'pubkeys': ['0224e773f36e5c84b7b7996d904fea4e59187b982e7fd2724580bcabc483ad3c5c'], 'prevout_n': 1, 'coinbase': False, 'prev_tx': <qtum_electrum.transaction.Transaction object at 0x7f37b8037d30>, 'type': 'p2pkh', 'sequence': 4294967293, 'signatures': [None], 'address': 'qUY1CtQ7ckLBBBNCEEX1urJMnsNYJmFWmA', 'x_pubkeys': ['ff043587cf0352b519e080000000c5bd0ac7e3c47cad4258cf78a58d39bae3891f255bc5bcfabaf8715851e828d70234e38dd09205404508836e886f967d5d2847a848ff21d759ea433eae63a4670301000000']}
sig_txin:{'witness': None, 'height': 187341, 'value': 6258217400, 'num_sig': 1, 'prevout_hash': 'fd9e03ef8f7ae88d7c9a64bafa169618a22456d5370ab5129d037844b08bc86d', 'pubkeys': ['0224e773f36e5c84b7b7996d904fea4e59187b982e7fd2724580bcabc483ad3c5c'], 'prevout_n': 1, 'coinbase': False, 'prev_tx': <qtum_electrum.transaction.Transaction object at 0x7f37b8037d30>, 'type': 'p2pkh', 'scriptSig': None, 'sequence': 4294967293, 'signatures': ['3044022069c016c7fe1c3333db88c90e811a68c6f117b644cb544fa1406ce55bbae7b01a02201234cad2e38e37445f5c65b521ea71ff8adfa198445e1927a17724d8d04dffbc01'], 'address': 'qUY1CtQ7ckLBBBNCEEX1urJMnsNYJmFWmA', 'x_pubkeys': ['ff043587cf0352b519e080000000c5bd0ac7e3c47cad4258cf78a58d39bae3891f255bc5bcfabaf8715851e828d70234e38dd09205404508836e886f967d5d2847a848ff21d759ea433eae63a4670301000000']}
updated_sig_tx:01000000016dc88bb04478039d12b50a37d55624a2189616faba649a7c8de87a8fef039efd010000006a473044022069c016c7fe1c3333db88c90e811a68c6f117b644cb544fa1406ce55bbae7b01a02201234cad2e38e37445f5c65b521ea71ff8adfa198445e1927a17724d8d04dffbc01210224e773f36e5c84b7b7996d904fea4e59187b982e7fd2724580bcabc483ad3c5cfdffffff0200e1f505000000001976a914d7316ca8bbe89a6b0c1ea2422b1bc921c5f3ab0a88ac34a10a6f010000001976a9147866a4e2bd6cef5bc362962e836ec94bc2b549b388ac00000000
derivation:m/44'/1'/0'
tx.outputs():_type0
应该与热钱包_type一致addr=0 script=2

tx.outputs():addressqdBDeM1aJgbTvLsgZbu6cnk5WCKqhTX8zy

输出了公钥的路径[m/44'/88'/0]

tx.outputs():amount10000000

info:None由address得到的info
derivation:m/44'/1'/0'
tx.outputs():_type0
应该与热钱包_type一致addr=0 script=2

tx.outputs():addressqUY1CtQ7ckLBBBNCEEX1urJMnsNYJmFWmA

输出了公钥的路径[m/44'/88'/0]

tx.outputs():amount6628900

info:((True, 0), ('tpubDCdf6NziND7YC2QaZhXpDghGr3w9L6VUr7XHa1rmGEaYEXXH9VSGz3RLij1LWQZFBQqXKdZa7C8eiMBfEJpDkkVB9SezeKBJVjszspMYjSY',), None)由address得到的info
prev_tx:{'e476872a70682dec222f6f1ed1fad66cad3e9f16713b1480390f3f5ac4493c8a': <qtum_electrum.transaction.Transaction object at 0x7f37b8b3ee10>, '860f820fa4610afc63d35d6c9bc3bb362adcf4dd956c5c904d6c2002942a69ea': <qtum_electrum.transaction.Transaction object at 0x7f37b8b3ee80>}

打印了前一个交易的信息

xpub_path:{'tpubDCdf6NziND7YC2QaZhXpDghGr3w9L6VUr7XHa1rmGEaYEXXH9VSGz3RLij1LWQZFBQqXKdZa7C8eiMBfEJpDkkVB9SezeKBJVjszspMYjSY': "m/44'/1'/0'"}

输出了公钥的路径[m/44'/88'/0]

inputs:[<TxInputType: {'prev_index': 11, 'sequence': 4294967293, 'script_type': 0, 'address_n': [2147483692, 2147483649, 2147483648, 1, 0], 'prev_hash': b'\xe4v\x87*ph-\xec"/o\x1e\xd1\xfa\xd6l\xad>\x9f\x16q;\x14\x809\x0f?Z\xc4I<\x8a', 'amount': 8548200}>, <TxInputType: {'prev_index': 11, 'sequence': 4294967293, 'script_type': 0, 'address_n': [2147483692, 2147483649, 2147483648, 1, 0], 'prev_hash': b'\x86\x0f\x82\x0f\xa4a\n\xfcc\xd3]l\x9b\xc3\xbb6*\xdc\xf4\xdd\x95l\\\x90Ml \x02\x94*i\xea', 'amount': 8548200}>]

outputs:[<TxOutputType: {'script_type': 0, 'address': 'qdBDeM1aJgbTvLsgZbu6cnk5WCKqhTX8zy', 'amount': 10000000}>, <TxOutputType: {'script_type': 0, 'address_n': [2147483692, 2147483649, 2147483648, 1, 0], 'amount': 6628900}>]

origin_signatures:[b'0D\x02 ~\xbd~\xa2_\x02\xfe\x05IoG\xfe\xcb\xaf\x0eQ>R\x05\xf3&a>@\x10\x94cQ\xf5\xc3\x8fh\x02 *\x85\x9c\xa2\xd1\xea\xea_\xbd\xc9E\x00\xe0\xde\xc7\xa2\x15\xd4/\x90Q\n\x90\xd0"*\xa9g\xbb\x89\xb3\t', b'0E\x02!\x00\x972\\P\xc6U\xa9\x8b\xfa\x95\x82\xc6\x90{PS\xab\xd0\xd02\x0e\xd2^1 +\xcd\xa2EtX\xa6\x02 \\I\xe5\xc9\xf4\x0b\xc0g\xc8\x05W\xcap\xdb\x13\x8a\x8c\x06i,\xe5\x80-c \x16\xc0\r\xf95wg']
unupdated_sig_tx:45505446ff0001000000028a3c49c45a3f0f3980143b71169f3ead6cd6fad11e6f2f22ec2d68702a8776e40b0000005601ff53ff043587cf0352b519e080000000c5bd0ac7e3c47cad4258cf78a58d39bae3891f255bc5bcfabaf8715851e828d70234e38dd09205404508836e886f967d5d2847a848ff21d759ea433eae63a4670301000000feffffffea692a9402206c4d905c6c95ddf4dc2a36bbc39b6c5dd363fc0a61a40f820f860b0000005601ff53ff043587cf0352b519e080000000c5bd0ac7e3c47cad4258cf78a58d39bae3891f255bc5bcfabaf8715851e828d70234e38dd09205404508836e886f967d5d2847a848ff21d759ea433eae63a4670301000000feffffff0280969800000000001976a914d7316ca8bbe89a6b0c1ea2422b1bc921c5f3ab0a88ac24266500000000001976a9147866a4e2bd6cef5bc362962e836ec94bc2b549b388ac00000000
nonsig_txin:{'height': 186907, 'value': 8548200, 'num_sig': 1, 'prevout_hash': 'e476872a70682dec222f6f1ed1fad66cad3e9f16713b1480390f3f5ac4493c8a', 'pubkeys': ['0224e773f36e5c84b7b7996d904fea4e59187b982e7fd2724580bcabc483ad3c5c'], 'prevout_n': 11, 'coinbase': True, 'prev_tx': <qtum_electrum.transaction.Transaction object at 0x7f37b8b3ee10>, 'type': 'p2pkh', 'sequence': 4294967293, 'signatures': [None], 'address': 'qUY1CtQ7ckLBBBNCEEX1urJMnsNYJmFWmA', 'x_pubkeys': ['ff043587cf0352b519e080000000c5bd0ac7e3c47cad4258cf78a58d39bae3891f255bc5bcfabaf8715851e828d70234e38dd09205404508836e886f967d5d2847a848ff21d759ea433eae63a4670301000000']}
nonsig_txin:{'height': 186914, 'value': 8548200, 'num_sig': 1, 'prevout_hash': '860f820fa4610afc63d35d6c9bc3bb362adcf4dd956c5c904d6c2002942a69ea', 'pubkeys': ['0224e773f36e5c84b7b7996d904fea4e59187b982e7fd2724580bcabc483ad3c5c'], 'prevout_n': 11, 'coinbase': True, 'prev_tx': <qtum_electrum.transaction.Transaction object at 0x7f37b8b3ee80>, 'type': 'p2pkh', 'sequence': 4294967293, 'signatures': [None], 'address': 'qUY1CtQ7ckLBBBNCEEX1urJMnsNYJmFWmA', 'x_pubkeys': ['ff043587cf0352b519e080000000c5bd0ac7e3c47cad4258cf78a58d39bae3891f255bc5bcfabaf8715851e828d70234e38dd09205404508836e886f967d5d2847a848ff21d759ea433eae63a4670301000000']}
sig_txin:{'witness': None, 'height': 186914, 'value': 8548200, 'num_sig': 1, 'prevout_hash': '860f820fa4610afc63d35d6c9bc3bb362adcf4dd956c5c904d6c2002942a69ea', 'pubkeys': ['0224e773f36e5c84b7b7996d904fea4e59187b982e7fd2724580bcabc483ad3c5c'], 'prevout_n': 11, 'coinbase': True, 'prev_tx': <qtum_electrum.transaction.Transaction object at 0x7f37b8b3ee80>, 'type': 'p2pkh', 'scriptSig': None, 'sequence': 4294967293, 'signatures': ['304502210097325c50c655a98bfa9582c6907b5053abd0d0320ed25e31202bcda2457458a602205c49e5c9f40bc067c80557ca70db138a8c06692ce5802d632016c00df935776701'], 'address': 'qUY1CtQ7ckLBBBNCEEX1urJMnsNYJmFWmA', 'x_pubkeys': ['ff043587cf0352b519e080000000c5bd0ac7e3c47cad4258cf78a58d39bae3891f255bc5bcfabaf8715851e828d70234e38dd09205404508836e886f967d5d2847a848ff21d759ea433eae63a4670301000000']}
updated_sig_tx:01000000028a3c49c45a3f0f3980143b71169f3ead6cd6fad11e6f2f22ec2d68702a8776e40b0000006a47304402207ebd7ea25f02fe05496f47fecbaf0e513e5205f326613e4010946351f5c38f6802202a859ca2d1eaea5fbdc94500e0dec7a215d42f90510a90d0222aa967bb89b30901210224e773f36e5c84b7b7996d904fea4e59187b982e7fd2724580bcabc483ad3c5cfdffffffea692a9402206c4d905c6c95ddf4dc2a36bbc39b6c5dd363fc0a61a40f820f860b0000006b48304502210097325c50c655a98bfa9582c6907b5053abd0d0320ed25e31202bcda2457458a602205c49e5c9f40bc067c80557ca70db138a8c06692ce5802d632016c00df935776701210224e773f36e5c84b7b7996d904fea4e59187b982e7fd2724580bcabc483ad3c5cfdffffff0280969800000000001976a914d7316ca8bbe89a6b0c1ea2422b1bc921c5f3ab0a88ac24266500000000001976a9147866a4e2bd6cef5bc362962e836ec94bc2b549b388ac00000000
